S00C00006172626B2E7372656378
S11300000C9434000C9451000C9451000C94510045
S11300100C9451000C9451000C9451000C94510018
S11300200C9451000C9451000C9451000C94510008
S11300300C9451000C9451000C9451000C945100F8
S11300400C94CE000C9451000C9451000C9451006B
S11300500C9451000C9451000C9451000C945100D8
S11300600C9451000C94510011241FBECFEFD8E022
S1130070DEBFCDBF11E0A0E0B1E0E4EFF8E002C0E4
S113008005900D92A231B107D9F721E0A2E1B1E0C8
S113009001C01D92A531B207E1F70E9484000C94BF
S11300A078040C94000087E480937C00EAE7F0E095
S11300B087EA808310927B00808180648083089526
S11300C0209178008091790090E0982F8827822BE6
S11300D008958FEF8AB984B1836084B908958BB988
S11300E085B18C7F9370982B95B908952FE030E0FB
S11300F0281B310980E090E802C0959587952A95E0
S1130100E2F78095909508950E94B80180E090E010
S1130110089590E03FC0292F30E0482F50E0092E89
S113012002C0559547950A94E2F740FF19C0F901BA
S1130130E65FFE4F41E050E09A01008002C0220FCA
S1130140331F0A94E2F74FEF490F453018F4E8E201
S1130150F0E002C0E5E2F0E03081232B208319C0F7
S1130160F901E65FFE4F21E030E0008002C0220F7B
S1130170331F0A94E2F7209530954FEF490F45302D
S113018018F4E8E2F0E002C0E5E2F0E03081232375
S113019020839F5F983008F4BECF08951F920F927A
S11301A00FB60F9211242F933F934F935F936F9346
S11301B07F938F939F93AF93BF93EF93FF9390910C
S11301C0120181E08927809312018823C1F085B14F
S11301D08F7E85B990911301EDEC9E9FE12D112442
S11301E0E695E695E695EE0F8E2F880F880FE80FBB
S11301F09E1BE92FF0E0E050FF4F808114C085B1D1
S1130200806185B980911301EDEC8E9FE12D11245D
S1130210E695E695E695F0E0E050FF4F80819091F9
S1130220140191118F770E948900FF91EF91BF9182
S1130230AF919F918F917F916F915F914F913F917A
S11302402F910F900FBE0F901F90189584B180616D
S113025084B920E019C0E22FF0E0E65FFE4F81E0B0
S113026090E0008002C0880F991F0A94E2F73FEFE4
S1130270320F353018F4E7E2F0E002C0E4E2F0E0D7
S11302809081892B80832F5F283028F314BC15BC00
S113029016BC85B5846085BDEEE6F0E080818160A2
S11302A0808378940895CF92DF92EF92FF926B014E
S11302B07C0120E030E0A9010E94700288231CF434
S11302C0C12CD12C760120E030E046EC52E4C70189
S11302D0B6010E94CF03181644F40F2EC12CD12C62
S11302E0F6ECEF2EF2E4FF2EF02D20E030E040E2B9
S11302F051E4C701B6010E94700288230CF520E086
S113030030E040E251E4C701B6010E94D40320E08A
S113031030E040E05FE30E9404020E94E702CB0168
S11303206AE070E00E944104660F962F990F990FBE
S1130330690F860F8093130181E08093140113C029
S113034020E030E040E05FE3C701B6010E94040210
S11303500E94E7026436710514F063E670E060936E
S1130360130110921401FF90EF90DF90CF90089545
S11303700E9469000E9453000E9426010E946000AE
S1130380AC019C01220F331F880F991F880F991FFE
S1130390880F991F280F391F36952795369527956D
S11303A036952795A5ECB0E20E945504EC01D29550
S11303B0C295CF70CD27DF70CD27BA0180E090E0E1
S11303C00E941D0320E030E040EA50E40E94D40380
S11303D020E030EC4FE754E40E9475026B017C018D
S11303E08C2F0E9476000E946F00C701B6010E9404
S11303F053012FEF81EE94E0215080409040E1F7CB
S113040000C00000BBCF5058BB27AA270E941B0284
S11304100C9495030E94870338F00E948E0320F009
S113042039F49F3F19F426F40C9484030EF4E095F8
S1130430E7FB0C947E03E92F0E94A60358F3BA1736
S1130440620773078407950720F079F4A6F50C94E6
S1130450C8030EF4E0950B2EBA2FA02D0B01B901A1
S113046090010C01CA01A0011124FF27591B99F026
S1130470593F50F4503E68F11A16F040A22F232F32
S1130480342F4427585FF3CF469537952795A79582
S1130490F0405395C9F77EF41F16BA0B620B730B29
S11304A0840BBAF09150A1F0FF0FBB1F661F771F9A
S11304B0881FC2F70EC0BA0F621F731F841F48F44F
S11304C0879577956795B795F7959E3F08F0B0CFD8
S11304D09395880F08F09927EE0F979587950895BF
S11304E00E945A0308F481E008950E9489020C9442
S11304F095030E948E0358F00E94870340F029F46C
S11305005F3F29F00C947E0351110C94C9030C94A1
S113051084030E94A60368F39923B1F3552391F34E
S1130520951B550BBB27AA2762177307840738F05E
S11305309F5F5F4F220F331F441FAA1FA9F335D0BB
S11305400E2E3AF0E0E832D091505040E695001C6F
S1130550CAF72BD0FE2F29D0660F771F881FBB1F29
S1130560261737074807AB07B0E809F0BB0B802D07
S1130570BF01FF2793585F4F3AF09E3F510578F033
S11305800C947E030C94C9035F3FE4F3983ED4F3C8
S1130590869577956795B795F7959F5FC9F7880F07
S11305A0911D9695879597F90895E1E0660F771F59
S11305B0881FBB1F621773078407BA0720F0621BEA
S11305C0730B840BBA0BEE1F88F7E09508950E9415
S11305D0EE026894B1110C94C90308950E94AE030D
S11305E088F09F5798F0B92F9927B751B0F0E1F0F0
S11305F0660F771F881F991F1AF0BA95C9F714C0A0
S1130600B13091F00E94C803B1E008950C94C8037E
S1130610672F782F8827B85F39F0B93FCCF38695D8
S113062077956795B395D9F73EF490958095709535
S113063061957F4F8F4F9F4F0895E89409C097FBB2
S11306403EF490958095709561957F4F8F4F9F4FA5
S11306509923A9F0F92F96E9BB279395F6958795E9
S113066077956795B795F111F8CFFAF4BB0F11F4AC
S113067060FF1BC06F5F7F4F8F4F9F4F16C0882353
S113068011F096E911C0772321F09EE8872F762F89
S113069005C0662371F096E8862F70E060E02AF0CA
S11306A09A95660F771F881FDAF7880F96958795B6
S11306B097F90895990F0008550FAA0BE0E8FEEF8B
S11306C016161706E807F907C0F012161306E40712
S11306D0F50798F0621B730B840B950B39F40A260B
S11306E061F0232B242B252B21F408950A2609F4E9
S11306F0A140A6958FEF811D811D089597F99F67ED
S113070080E870E060E008959FEF80EC0895002495
S11307100A941616170618060906089500240A9462
S113072012161306140605060895092E0394000CE8
S113073011F4882352F0BB0F40F4BF2B11F460FF77
S113074004C06F5F7F4F8F4F9F4F089557FD9058A0
S1130750440F551F59F05F3F71F04795880F97FB81
S1130760991F61F09F3F79F087950895121613063B
S11307701406551FF2CF4695F1DF08C0161617066A
S11307801806991FF1CF869571056105089408959F
S1130790E894BB2766277727CB0197F908950E9431
S11307A05A0308F48FEF08950E94E7030C9495030D
S11307B00E94870338F00E948E0320F0952311F0E5
S11307C00C947E030C94840311240C94C9030E949A
S11307D0A60370F3959FC1F3950F50E0551F629FD8
S11307E0F001729FBB27F00DB11D639FAA27F00D86
S11307F0B11DAA1F649F6627B00DA11D661F829FAD
S11308002227B00DA11D621F739FB00DA11D621F91
S1130810839FA00D611D221F749F3327A00D611DAE
S1130820231F849F600D211D822F762F6A2F112490
S11308309F5750409AF0F1F088234AF0EE0FFF1FC3
S1130840BB1F661F771F881F91505040A9F79E3F1A
S1130850510580F00C947E030C94C9035F3FE4F3CC
S1130860983ED4F3869577956795B795F795E79570
S11308709F5FC1F7FE2B880F911D9695879597F979
S1130880089597FB072E16F4009407D077FD09D03E
S11308900E94640407FC05D03EF4909581959F4F17
S11308A00895709561957F4F0895A29FB001B39FFD
S11308B0C001A39F700D811D1124911DB29F700D65
S11308C0811D1124911D0895AA1BBB1B51E107C072
S11308D0AA1FBB1FA617B70710F0A61BB70B881FCC
S11308E0991F5A95A9F780959095BC01CD0108955B
S10708F0F894FFCFA6
S11308F4C0F9A4B0999282F880900500010203041F
S10509040203E8
S9030000FC
