:100000000C9434000C9451000C9451000C94510049
:100010000C9451000C9451000C9451000C9451001C
:100020000C9451000C9451000C9451000C9451000C
:100030000C9451000C9451000C9451000C945100FC
:100040000C94E6000C9451000C9451000C94510057
:100050000C9451000C9451000C9451000C945100DC
:100060000C9451000C94510011241FBECFEFD8E026
:10007000DEBFCDBF11E0A0E0B1E0ECE0F7E002C0F0
:1000800005900D92A231B107D9F721E0A2E1B1E0CC
:1000900001C01D92A631B207E1F70E949C000C94AA
:1000A00084030C94000087B18F7D87B988B180628A
:1000B00088B98FE19EE40197F1F700C00000089530
:1000C0000DC0359904C0359BFECF81E008958FE9BE
:1000D0009FE00197F1F700C00000C9019C01215089
:1000E0003109892B71F780E008958FEF8AB984B1C7
:1000F000836084B908958BB985B18C7F9370982BF8
:1001000095B908952FE030E0281B310980E090E890
:1001100002C0959587952A95E2F780959095089568
:1001200090E005966AE070E00E945C03862F0E94D2
:1001300082000E947B0008950E94F40180E090E01C
:10014000089590E03FC0292F30E0482F50E0092E5D
:1001500002C0559547950A94E2F740FF19C0F9018E
:10016000E65FFE4F41E050E09A01008002C0220F9E
:10017000331F0A94E2F74FEF490F453018F4E8E2D5
:10018000F0E002C0E5E2F0E03081232B208319C0CB
:10019000F901E65FFE4F21E030E0008002C0220F4F
:1001A000331F0A94E2F7209530954FEF490F453001
:1001B00018F4E8E2F0E002C0E5E2F0E03081232349
:1001C00020839F5F983008F4BECF08951F920F924E
:1001D0000FB60F9211242F933F934F935F936F931A
:1001E0007F938F939F93AF93BF93EF93FF939091E0
:1001F000120181E08927809312018823C1F085B123
:100200008F7E85B990911301EDEC9E9FE12D112415
:10021000E695E695E695EE0F8E2F880F880FE80F8E
:100220009E1BE92FF0E0E050FF4F808114C085B1A4
:10023000806185B980911301EDEC8E9FE12D112431
:10024000E695E695E695F0E0E050FF4F80819091CD
:10025000140191118F770E94A100FF91EF91BF913E
:10026000AF919F918F917F916F915F914F913F914E
:100270002F910F900FBE0F901F90189584B1806141
:1002800084B920E019C0E22FF0E0E65FFE4F81E084
:1002900090E0008002C0880F991F0A94E2F73FEFB8
:1002A000320F353018F4E7E2F0E002C0E4E2F0E0AB
:1002B0009081892B80832F5F283028F314BC15BCD4
:1002C00016BC85B5846085BDEEE6F0E08081816076
:1002D000808378940895843608F083E68093130130
:1002E0001092140108950E9475000E9453000E940C
:1002F0003E010895EF92FF921F93CF93DF931092E8
:10030000150188E893E10E9460008823D1F3809171
:1003100015010E946B010F2EF8ECEF2EF12CF02D41
:1003200010E0C1E0D0E0CE010E947B00C7010E9436
:100330006000882309F443C0CE018C7F9927892B64
:1003400009F04BC0CE0183709927892BD1F0113071
:10035000C1F481E01827809115018F5F809315010A
:100360000E946B01B70180E090E00E94610226E6E6
:1003700036E646E65FE30E94C7020E9432027B0136
:100380001EC0CE0188279370892BC9F0111117C0A8
:1003900081E01827809115018F5F809315010E94DD
:1003A0006B01B70180E090E00E94610226E636E62C
:1003B00046E65FE30E94C7020E9432027B011111F0
:1003C00003C0CC0FDD1F02C0D695C795CE01937038
:1003D000892B09F0A8CF80E001C081E0DF91CF91A7
:1003E0001F91FF90EF9008950E9473010E947A017F
:1003F0000E94FF01809115010E942B02F7CF0F93FD
:100400001F93CF93811103C003E013E002C00CEFF0
:1004100010E0C0E01AC0C8010E947B002FEF89E6FF
:1004200098E1215080409040E1F700C0000080E05A
:1004300090E00E947B002FEF89E698E121508040F8
:100440009040E1F700C00000CF5FC33020F3CF91B0
:100450001F910F910895982F990F990F890F0E945E
:10046000900008950E94A60288F09F5798F0B92F37
:100470009927B751B0F0E1F0660F771F881F991FD9
:100480001AF0BA95C9F714C0B13091F00E94C002B9
:10049000B1E008950C94C002672F782F8827B85FC9
:1004A00039F0B93FCCF3869577956795B395D9F731
:1004B0003EF490958095709561957F4F8F4F9F4F3B
:1004C0000895E89409C097FB3EF490958095709547
:1004D00061957F4F8F4F9F4F9923A9F0F92F96E990
:1004E000BB279395F695879577956795B795F11105
:1004F000F8CFFAF4BB0F11F460FF1BC06F5F7F4FA2
:100500008F4F9F4F16C0882311F096E911C07723B3
:1005100021F09EE8872F762F05C0662371F096E8BC
:10052000862F70E060E02AF09A95660F771F881F8B
:10053000DAF7880F9695879597F9089557FD9058A3
:10054000440F551F59F05F3F71F04795880F97FB97
:10055000991F61F09F3F79F0879508951216130651
:100560001406551FF2CF4695F1DF08C01616170680
:100570001806991FF1CF86957105610508940895B5
:10058000E894BB2766277727CB0197F908950E9447
:10059000DA020C944B030E943D0338F00E9444039E
:1005A00020F0952311F00C9434030C943A03112499
:1005B0000C94C1020E949E0270F3959FC1F3950FA7
:1005C00050E0551F629FF001729FBB27F00DB11DD7
:1005D000639FAA27F00DB11DAA1F649F6627B00D67
:1005E000A11D661F829F2227B00DA11D621F739F50
:1005F000B00DA11D621F839FA00D611D221F749F5E
:100600003327A00D611D231F849F600D211D822FA4
:10061000762F6A2F11249F5750409AF0F1F08823CB
:100620004AF0EE0FFF1FBB1F661F771F881F9150F8
:100630005040A9F79E3F510580F00C9434030C9470
:10064000C1025F3FE4F3983ED4F3869577956795B2
:10065000B795F795E7959F5FC1F7FE2B880F911D22
:100660009695879597F9089597F99F6780E870E0C8
:1006700060E008959FEF80EC089500240A94161618
:10068000170618060906089500240A941216130680
:10069000140605060895092E0394000C11F488230E
:1006A00052F0BB0F40F4BF2B11F460FF04C06F5F2A
:1006B0007F4F8F4F9F4F089597FB072E16F400949E
:1006C00007D077FD09D00E94700307FC05D03EF4E7
:1006D000909581959F4F0895709561957F4F0895EE
:1006E000AA1BBB1B51E107C0AA1FBB1FA617B70758
:1006F00010F0A61BB70B881F991F5A95A9F7809574
:0C0700009095BC01CD010895F894FFCF46
:10070C00C0F9A4B0999282F880900500010203040C
:02071C000203D6
:00000001FF
