S00C00006172626B2E7372656378
S11300000C9434000C9451000C9451000C94510045
S11300100C9451000C9451000C9451000C94510018
S11300200C9451000C9451000C9451000C94510008
S11300300C9451000C9451000C9451000C945100F8
S11300400C9472000C9451000C9451000C945100C7
S11300500C9451000C9451000C9451000C945100D8
S11300600C9451000C94510011241FBECFEFD8E022
S1130070DEBFCDBF11E0A0E0B1E0EAE0F4E002C0F1
S113008005900D92A030B107D9F721E0A0E0B1E0CE
S113009001C01D92A030B207E1F70E946D000C94DC
S11300A003020C94000087B18F7D87B988B1806208
S11300B088B98FE19EE40197F1F700C0000008952C
S11300C08FEF8AB984B1836084B908958BB985B1FF
S11300D08C7F9370982B95B908950E94D40080E08A
S11300E090E008951F920F920FB60F9211240F9073
S11300F00FBE0F901F9018950E9460000E9453003D
S11301000895FF920F931F93CF93DF933599FECFFA
S1130110359BFECF08EC10E0F12CC1E0D0E0CE011D
S11301200E94660080E090E007C0EFE9FFE03197AD
S1130130F1F700C00000019680179107B0F3C130B9
S1130140D10519F4F1E0FF1631F0C11582E0D807AA
S1130150B1F4F11014C0F11003C0FF24F39401C0F2
S1130160F12CB80180E090E00E94080126E636E612
S113017046E65FE30E946E010E94D9008B01F110F4
S113018003C0CC0FDD1F02C0D695C795D3700230D3
S1130190110528F68FEF93E00E946600DF91CF915E
S11301A01F910F91FF9008950E947C000E9481008E
S11301B0FDCF0E944D0188F09F5798F0B92F9927E1
S11301C0B751B0F0E1F0660F771F881F991F1AF03E
S11301D0BA95C9F714C0B13091F00E946701B1E03B
S11301E008950C946701672F782F8827B85F39F03A
S11301F0B93FCCF3869577956795B395D9F73EF4D7
S113020090958095709561957F4F8F4F9F4F08957E
S1130210E89409C097FB3EF490958095709561959C
S11302207F4F8F4F9F4F9923A9F0F92F96E9BB2752
S11302309395F695879577956795B795F111F8CFCE
S1130240FAF4BB0F11F460FF1BC06F5F7F4F8F4F39
S11302509F4F16C0882311F096E911C0772321F02F
S11302609EE8872F762F05C0662371F096E8862FC7
S113027070E060E02AF09A95660F771F881FDAF71E
S1130280880F9695879597F9089557FD9058440FD0
S1130290551F59F05F3F71F04795880F97FB991FE1
S11302A061F09F3F79F0879508951216130614069E
S11302B0551FF2CF4695F1DF08C01616170618062B
S11302C0991FF1CF86957105610508940895E89406
S11302D0BB2766277727CB0197F908950E948101F0
S11302E00C94F2010E94E40138F00E94EB0120F02A
S11302F0952311F00C94DB010C94E10111240C946E
S113030068010E94450170F3959FC1F3950F50E079
S1130310551F629FF001729FBB27F00DB11D639FB3
S1130320AA27F00DB11DAA1F649F6627B00DA11D59
S1130330661F829F2227B00DA11D621F739FB00DFF
S1130340A11D621F839FA00D611D221F749F33276F
S1130350A00D611D231F849F600D211D822F762F08
S11303606A2F11249F5750409AF0F1F088234AF0E5
S1130370EE0FFF1FBB1F661F771F881F9150504051
S1130380A9F79E3F510580F00C94DB010C946801A1
S11303905F3FE4F3983ED4F3869577956795B795D8
S11303A0F795E7959F5FC1F7FE2B880F911D9695F2
S11303B0879597F9089597F99F6780E870E060E062
S11303C008959FEF80EC089500240A9416161706EA
S11303D018060906089500240A9412161306140632
S11303E005060895092E0394000C11F4882352F095
S11303F0BB0F40F4BF2B11F460FF04C06F5F7F4F4D
S10D04008F4F9F4F0895F894FFCF2B
S9030000FC
